:100000000C9434000C943E000C943E000C943E0082
:100010000C943E000C943E000C943E000C943E0068
:100020000C943E000C943E000C943E000C943E0058
:100030000C943E000C943E000C943E000C943E0048
:100040000C943E000C943E000C943E000C943E0038
:100050000C943E000C943E000C943E000C943E0028
:100060000C943E000C943E0011241FBECFEFD8E04C
:10007000DEBFCDBF0E9492000C94A8000C9400003B
:100080005E985F9808955E985F9880ED97E020E90C
:1000900031E0F9013197F1F70197D9F75E9A5F9A4C
:1000A00080ED97E020E931E0F9013197F1F7019710
:1000B000D9F7089580EC8AB988E38BB989B149B141
:1000C00099B183FF02C05E9814C05E9A80ED97E0FC
:1000D00020E931E0F9013197F1F70197D9F75E98FE
:1000E00080ED97E020E931E0F9013197F1F70197D0
:1000F000D9F744FF02C05F9808955F9A80ED97E0BA
:1001000020E931E0F9013197F1F70197D9F75F98CC
:1001100080ED97E020E931E0F9013197F1F701979F
:10012000D9F7089580EC8AB988E38BB989B129B1F0
:1001300099B183FD05C024FD03C05E985F98F6CF9A
:1001400095FD03C00E944300F1CF0E945A00EECFFC
:04015000F894FFCF51
:00000001FF
