:100000000C9434000C9451000C9451000C94510049
:100010000C9451000C9451000C9451000C9451001C
:100020000C9451000C9451000C9451000C9451000C
:100030000C9451000C9451000C9451000C945100FC
:100040000C9451000C9451000C9451000C945100EC
:100050000C9451000C9451000C9451000C945100DC
:100060000C9451000C94510011241FBECFEFD8E026
:10007000DEBFCDBF15E0A0E0B1E0EEE2F3E102C0EB
:1000800005900D92AE3BB107D9F715E0AEEBB5E0A8
:1000900001C01D92A13CB107E1F70E9453000C94EE
:1000A00095090C9400000E942F0380E090E00895D1
:1000B000E9EBF0E080818C7F808383E18093B8005E
:1000C00008958093BE058091BC00846A8093BC0033
:1000D0008091BC0087FFFCCF8091B90090E0887FC1
:1000E00090708830910521F0409711F08EEF0895BF
:1000F0008FEF08959091BE05880F892B8093BB00E8
:100100008091BC008F7D8093BC008091BC00806892
:100110008093BC008091BC0087FFFCCF992331F411
:100120008091B900887F883151F40BC0913011F073
:1001300080E008958091B900887F803411F08EEFBF
:1001400008958FEF08958093BB008091BC00806874
:100150008093BC008091BC0087FFFCCF8091B900E8
:10016000887F883211F08EEF08958FEF089592E323
:1001700006C08091BC0087FF02C08DEF08959150AA
:10018000C0F78CEF0895882321F48091BC0080642F
:1001900003C08091BC008F7B8093BC008091BC0029
:1001A00080688093BC0092E304C08091BC0087FD0E
:1001B00002C09150D0F78091B90090E0887F907094
:1001C0008035910529F08835910529F08EEF089545
:1001D0008091BB0008958091BB0008958091BC0080
:1001E00080698093BC008091BC0084FFFCCF08959F
:1001F0000E94A30008950E94EE0008951F93182FF7
:1002000080E00E946100812F0E947A001F91089572
:100210001F93182F8CE30E94FE0080E00E94A30031
:10022000812F0E94A3000E94EE001F9108950F935A
:100230001F93082F162F8830F0F467FD1CC08093A1
:10024000BF056093C00581E20E940801812F0E94D2
:1002500008018FE70E94080182E20E940801802FB6
:100260000E94080187E00E9408018CE30E94FE00C2
:1002700080E40E94A3001F910F9108958091BF0513
:100280008F5F87708093BF0560E00E94170108951B
:100290000F931F93CF93DF93182F8091C00590E0A9
:1002A0008637910514F41A3021F40E943E011A3069
:1002B00059F1812F80522AE0829F80011124005041
:1002C0001F4F90E00196EC0133E0CC0FDD1F3A9513
:1002D000E1F7880F991FC80FD91FC050DF4FF801F1
:1002E00081918F010E94A3008091C0058F5F809350
:1002F000C0050C171D0799F780E00E94A3008091AC
:10030000C0058F5F8093C005DF91CF911F910F9142
:1003100008954F925F926F927F928F929F92AF92C9
:10032000BF92CF92DF92EF92FF920F931F93DF93D2
:10033000CF93CDB7DEB72C970FB6F894DEBF0FBEC4
:10034000CDBF5A016B01E22E823021F51EC020E0A4
:100350008E2D90E00197A80102C0440F551F8A9589
:10036000E2F7CA01AA2797FDA095BA2F8A219B21FF
:10037000AC21BD210097A105B10509F021E0822F34
:10038000805D0E944801EA9402C001E010E0EE2086
:10039000F1F653C0411551056105710551F010E0AA
:1003A0002E010894411C511C682E7724882499241E
:1003B00033C000E004C080E30E9448010F5F0E15C7
:1003C000E0F50A30C1F739C0A114B104C104D10469
:1003D000D9F0FA2CC601B501A40193010E943C0991
:1003E000C901DA015C016D01C201810F911D9C8779
:1003F0008B87C601B501A40193010E941D09F61A5D
:10040000EB85FC85F08207C0FAE0FE15A0F0F20152
:10041000E10FF11D10821F5F1E15B0F20CC0FE012E
:10042000E10FF11D80818A3010F0895C01C0805D90
:100430000E9448011150112391F72C960FB6F894A1
:10044000DEBF0FBECDBFCF91DF911F910F91FF9007
:10045000EF90DF90CF90BF90AF909F908F907F9064
:100460006F905F904F900895AF92BF92CF92DF92BE
:10047000EF92FF920F931F935B016C010E945B034D
:100480007B018C018AE0B801A7012FEF0E9489014E
:100490008EE20E944801C801B7010E94AF069B018D
:1004A000AC01C601B5010E94D30420E034E244E768
:1004B00059E40E9431050E945B03AB01BC018AE054
:1004C0002FEF0E9489011F910F91FF90EF90DF9015
:1004D000CF90BF90AF900895CF93DF93EC0103C00E
:1004E00021960E94480188818823D1F7DF91CF911E
:1004F0000895883028F48093BF0560E00E941701BA
:100500000895CF93DF9381E20E94080180E00E946A
:1005100008018FE70E94080182E20E94080180E042
:100520000E94080187E00E9408018CE30E94FE00FF
:1005300080E40E94A300C0E0D0E080E00E94A3001D
:10054000219684E0C030D807C1F781E20E940801FB
:1005500080E00E9408018FE70E94080182E20E9469
:10056000080180E00E94080187E00E9408018CE3F6
:100570000E94FE0080E40E94A300DF91CF910895C5
:100580000E9458008EEA0E94080185ED0E94080131
:1005900080E80E94080188EA0E9408018FE30E9417
:1005A000080183ED0E94080180E00E94080180E4B8
:1005B0000E9408018DE80E94080184E10E94080160
:1005C00080E20E94080180E00E94080181EA0E9406
:1005D000080188EC0E9408018AED0E94080182E16E
:1005E0000E94080181E80E9408018FEC0E94080126
:1005F00089ED0E94080181EF0E9408018BED0E94A5
:10060000080180E40E94080184EA0E94080186EA49
:100610000E9408018FEA0E9408010E948102089549
:10062000ECE7F0E080EC808380818160808387E864
:1006300080937A00089580917A00806480937A0094
:1006400080917A0084FFFCCF20917800409179005E
:10065000942F80E030E0282B392BC901089588E0E1
:100660008093C10086E08093C20087E68093C40037
:100670000895982F8091C00085FFFCCF9093C6000D
:1006800008959C01DC010D900020E9F71197A81B4B
:10069000B90B90E00AC0E20FF31F40818091C000C7
:1006A00085FFFCCF4093C6009F5FE92FF0E0EA177B
:1006B000FB0788F30895EF92FF920F931F937B013E
:1006C0008C0120E030E040E05FE40E942B068823AC
:1006D0008CF0C801B70120E030E040E05FE40E9408
:1006E000D3040E945B069B01AC0120503040404087
:1006F000504806C0C801B7010E945B069B01AC01CF
:10070000B901CA011F910F91FF90EF900895A0E0E9
:10071000B0E0EDE8F3E00C945E09DC012B01FA0196
:100720009C91923008F439C1EB018881823008F441
:1007300033C1943069F4843009F02FC111969C9133
:1007400011978981981709F428C1A6EBB4E025C157
:10075000843009F421C18230A9F4923009F01DC11E
:100760009A01AD0188E0EA010990AE01E901099220
:100770009E018150C1F7E201898111969C918923E4
:10078000818308C1923009F407C112962D903C90E4
:100790001397EB018A819B811496AD90BD90CD900B
:1007A000DC901797EC80FD800E811F819101281B42
:1007B000390BB90137FF04C066277727621B730B1B
:1007C000603271050CF061C0121613066CF537012A
:1007D0004801062E04C096948794779467940A94EF
:1007E000D2F721E030E040E050E004C0220F331F98
:1007F000441F551F6A95D2F7215030404040504069
:100800002E213F214023512321153105410551055A
:1008100021F021E030E040E050E079018A01E62853
:10082000F728082919293CC0232BD1F1260E371EA1
:1008300035014601062E04C09694879477946794F8
:100840000A94D2F721E030E040E050E004C0220FEB
:10085000331F441F551F6A95D2F721503040404046
:1008600050402A213B214C215D21211531054105B4
:10087000510521F021E030E040E050E059016A01EB
:10088000A628B728C828D9280BC0821593052CF0B4
:100890001C01AA24BB24650103C0EE24FF248701A8
:1008A00011969C91D20111968C91981709F445C02C
:1008B000992339F0A80197012A193B094C095D09D0
:1008C00006C0A60195012E193F09400B510B57FD9B
:1008D00008C0118233822282248335834683578362
:1008E0001DC081E081833382228288279927DC0121
:1008F000821B930BA40BB50B84839583A683B783CC
:100900000DC0220F331F441F551F24833583468398
:1009100057838281938101979383828324813581D8
:1009200046815781DA01C9010197A109B1098F5F99
:100930009F4FAF4FBF4328F30BC091833382228276
:10094000EA0CFB1C0C1D1D1DE482F5820683178337
:1009500083E08083248135814681578157FF1AC007
:10096000C901AA2797FDA095BA2F81709070A07039
:10097000B0705695479537952795822B932BA42BCE
:10098000B52B84839583A683B78382819381019657
:1009900093838283DF0101C0D201CD01CDB7DEB7E1
:1009A000E2E10C947A09A0E2B0E0E9EDF4E00C9405
:1009B0006A0969837A838B839C832D833E834F836B
:1009C0005887E9E0EE2EF12CEC0EFD1ECE010196CB
:1009D000B7010E944C088E010F5E1F4FCE01059695
:1009E000B8010E944C088A8991E089278A8BC70147
:1009F000B801AE01475E5F4F0E9487030E947707F0
:100A0000A096E6E00C948609A0E2B0E0EAE0F5E00A
:100A10000C946A0969837A838B839C832D833E833C
:100A20004F835887F9E0EF2EF12CEC0EFD1ECE011E
:100A30000196B7010E944C088E010F5E1F4FCE0138
:100A40000596B8010E944C08C701B801AE01475E87
:100A50005F4F0E9487030E947707A096E6E00C9400
:100A60008609A0E2B0E0E7E3F5E00C945E09698353
:100A70007A838B839C832D833E834F835887CE015B
:100A80000196BE01675F7F4F0E944C08CE0105961C
:100A9000BE016F5E7F4F0E944C089985923088F0AE
:100AA00089898230C8F0943019F4823051F404C03E
:100AB000843029F4923081F486EB94E0C6C0923001
:100AC00049F420E09A858A89981321E02A87CE018B
:100AD0000996BBC0823049F420E09A858A89981330
:100AE00021E02A8BCE014196B0C02D843E844F84F4
:100AF00058886D887E888F88988CEE24FF24870123
:100B0000AA24BB24650140E050E060E070E0E0E032
:100B1000F0E0C10181709070892BE9F0E60CF71CC0
:100B2000081D191D9A01AB012A0D3B1D4C1D5D1DB1
:100B300080E090E0A0E0B0E0E614F70408051905B5
:100B400020F481E090E0A0E0B0E0BA01A901480FF4
:100B5000591F6A1F7B1FAA0CBB1CCC1CDD1C97FEF7
:100B600008C081E090E0A0E0B0E0A82AB92ACA2A33
:100B7000DB2A3196E032F10549F0660C771C881CBF
:100B8000991C5694479437942794C3CFFA85EA89E1
:100B90002B893C898B859C85280F391F2E5F3F4F01
:100BA00017C0CA0181709070892B61F01695079566
:100BB000F794E79480E090E0A0E0B0E8E82AF92A12
:100BC0000A2B1B2B76956795579547952F5F3F4FBF
:100BD00077FDE7CF0CC0440F551F661F771F17FD29
:100BE0004160EE0CFF1C001F111F215030404030AF
:100BF00090E0590790E0690790E4790760F32B8F44
:100C00003C8FDB01CA018F779070A070B070803488
:100C10009105A105B10561F447FD0AC0E114F10495
:100C20000105110529F0405C5F4F6F4F7F4F407801
:100C30001A8EFE1711F081E08A8F4D8F5E8F6F8FB5
:100C400078A383E0898FCE0149960E947707A0960A
:100C5000E2E10C947A09A8E1B0E0E1E3F6E00C945B
:100C60006A0969837A838B839C832D833E834F83B8
:100C7000588789E0E82EF12CEC0EFD1ECE0101967E
:100C8000B7010E944C088E010F5E1F4FCE010596E2
:100C9000B8010E944C088985823040F089898230F1
:100CA00028F0C701B8010E94C40801C08FEF689600
:100CB000E6E00C948609ACE0B0E0E1E6F6E00C94E6
:100CC0006E0969837A838B839C83CE010196BE0172
:100CD0006B5F7F4F0E944C088D81823061F18230C2
:100CE00050F1843021F48E81882351F12EC02F8160
:100CF000388537FD20C06E812F3131051CF0662309
:100D0000F9F023C08EE190E0821B930B29853A8590
:100D10004B855C8504C056954795379527958A95F0
:100D2000D2F76623B1F050954095309521953F4F0D
:100D30004F4F5F4F0EC020E030E040E050E009C070
:100D40002FEF3FEF4FEF5FE704C020E030E040E0DF
:100D500050E8B901CA012C96E2E00C948A09A8E097
:100D6000B0E0E5EBF6E00C9466097B018C016115BF
:100D700071058105910519F482E0898360C083E0E3
:100D800089838EE1C82ED12CDC82CB82ED82FE825B
:100D90000F831887C801B7010E942807FC0131970B
:100DA000F7FF3BC0222733272E1B3F0B570168015B
:100DB000022E04C0D694C794B794A7940A94D2F78D
:100DC00040E050E060E070E081E090E0A0E0B0E062
:100DD00004C0880F991FAA1FBB1F2A95D2F701973D
:100DE000A109B1098E219F21A023B1230097A1055C
:100DF000B10521F041E050E060E070E04A295B2954
:100E00006C297D294D835E836F8378878EE190E026
:100E10008E1B9F0B9C838B8312C0309781F00E2E0C
:100E200004C0EE0CFF1C001F111F0A94D2F7ED82C4
:100E3000FE820F831887CE1ADF0ADC82CB821A82E9
:100E4000CE0101960E9477072896EAE00C94820969
:100E5000EF92FF920F931F937B018C0180E0E816C5
:100E600080E0F80681E0080780E0180788F48FEF3B
:100E7000E816F1040105110531F028F088E090E052
:100E8000A0E0B0E017C080E090E0A0E0B0E012C0C9
:100E900080E0E81680E0F80680E0080781E01807A7
:100EA00028F088E190E0A0E0B0E004C080E190E0AC
:100EB000A0E0B0E020E230E040E050E0281B390B39
:100EC0004A0B5B0B04C016950795F794E7948A9537
:100ED000D2F7F701E254FB4F8081281B3109410909
:100EE0005109C9011F910F91FF90EF900895DF9272
:100EF000EF92FF920F931F93FC01E480F58006812F
:100F00001781D1808081823048F480E090E0A0E1B8
:100F1000B0E0E82AF92A0A2B1B2BA5C0843009F47B
:100F20009FC0823021F4EE24FF24870105C0E11424
:100F3000F1040105110519F4E0E0F0E096C06281CA
:100F400073819FEF623879070CF05BC022E83FEFB6
:100F5000261B370B2A3131052CF020E030E040E031
:100F600050E02AC0B801A701022E04C0769567950B
:100F7000579547950A94D2F781E090E0A0E0B0E061
:100F800004C0880F991FAA1FBB1F2A95D2F701978B
:100F9000A109B1098E219F21A023B1230097A105AA
:100FA000B10521F081E090E0A0E0B0E09A01AB0152
:100FB000282B392B4A2B5B2BDA01C9018F779070D4
:100FC000A070B07080349105A105B10539F427FFF8
:100FD00009C0205C3F4F4F4F5F4F04C0215C3F4F23
:100FE0004F4F5F4FE0E0F0E02030A0E03A07A0E094
:100FF0004A07A0E45A0710F0E1E0F0E079018A0125
:1010000027C06038710564F5FB01E158FF4FD80136
:10101000C7018F779070A070B07080349105A105E2
:10102000B10539F4E7FE0DC080E490E0A0E0B0E047
:1010300004C08FE390E0A0E0B0E0E80EF91E0A1FC4
:101040001B1F17FF05C016950795F794E794319677
:1010500087E016950795F794E7948A95D1F705C030
:10106000EE24FF248701EFEFF0E06E2F67956627EF
:101070006795902F9F77D794DD24D7948E2F8695F0
:10108000492F462B582F5D29B701CA011F910F9197
:10109000FF90EF90DF900895FC01DB0140815181CA
:1010A0002281622F6F7770E0221F2227221F9381F7
:1010B000892F880F822B282F30E0991F9927991F9D
:1010C00011969C93119721153105A9F541155105EC
:1010D0006105710511F482E037C082E89FEF139635
:1010E0009C938E9312979A01AB0167E0220F331FF6
:1010F000441F551F6A95D1F783E08C930DC0220FD2
:10110000331F441F551F12968D919C911397019781
:1011100013969C938E931297203080E0380780E0DE
:10112000480780E4580758F314962D933D934D9348
:101130005C93179708952F3F310579F441155105B8
:101140006105710519F484E08C93089564FF03C070
:1011500081E08C9312C01C9210C02F573040139620
:101160003C932E93129783E08C9387E0440F551F96
:10117000661F771F8A95D1F7706414964D935D931F
:101180006D937C93179708951F93DC01FB019C914D
:10119000923008F447C08081823008F443C0943014
:1011A00051F411961C91843099F58181682F70E07B
:1011B000611B71093FC0843021F0923031F48230DC
:1011C000B9F18181882389F12DC011961C91119765
:1011D0008230F1F081811817D9F412962D913C914B
:1011E0001397828193818217930794F02817390708
:1011F000BCF014968D919D910D90BC91A02D2481F1
:10120000358146815781281739074A075B0718F44B
:10121000112341F00AC082179307A407B50740F4D1
:10122000112319F061E070E005C06FEF7FEF02C09D
:1012300060E070E0CB011F910895629FD001739F21
:10124000F001829FE00DF11D649FE00DF11D929F62
:10125000F00D839FF00D749FF00D659FF00D9927A1
:10126000729FB00DE11DF91F639FB00DE11DF91FC5
:10127000BD01CF0111240895A1E21A2EAA1BBB1BA8
:10128000FD010DC0AA1FBB1FEE1FFF1FA217B30752
:10129000E407F50720F0A21BB30BE40BF50B661F68
:1012A000771F881F991F1A9469F76095709580952C
:1012B00090959B01AC01BD01CF0108952F923F9203
:1012C0004F925F926F927F928F929F92AF92BF9256
:1012D000CF92DF92EF92FF920F931F93CF93DF9302
:1012E000CDB7DEB7CA1BDB0B0FB6F894DEBF0FBE5F
:1012F000CDBF09942A88398848885F846E847D84AC
:101300008C849B84AA84B984C884DF80EE80FD80AD
:101310000C811B81AA81B981CE0FD11D0FB6F89423
:0E132000DEBF0FBECDBFED010895F894FFCFE4
:10132E000000000000000000000000002F00000080
:10133E000000000000070007000000000000147FFE
:10134E00147F140000000000242A7F2A12000000DF
:10135E000000231308646200000000003649552285
:10136E005000000000000005030000000000000017
:10137E00001C22410000000000000041221C000061
:10138E000000000014083E081400000000000808C9
:10139E003E080800000000000000A06000000000F1
:1013AE000000080808080800000000000060600047
:1013BE0000000000000020100804020000000000E1
:1013CE003E5149453E000000000000427F400000B3
:1013DE00000000004261514946000000000021411A
:1013EE00454B3100000000001814127F1000000061
:1013FE000000274545453900000000003C4A494998
:10140E00300000000000017109050300000000001B
:10141E0036494949360000000000064949291E0098
:10142E0000000000003636000000000000000056EC
:10143E0036000000000000000814224100000000E9
:10144E0000001414141414000000000000412214B3
:10145E000800000000000201510906000000000013
:10146E00324959513E00000000007C1211127C00DE
:10147E00000000007F4949493600000000003E414F
:10148E0041412200000000007F4141221C0000006B
:10149E0000007F4949494100000000007F09090909
:1014AE000100000000003E4149497A0000000000A2
:1014BE007F0808087F000000000000417F41000007
:1014CE00000000002040413F0100000000007F08A6
:1014DE0014224100000000007F4040404000000008
:1014EE0000007F020C027F00000000007F04081045
:1014FE007F00000000003E4141413E000000000020
:10150E007F0909090600000000003E4151215E00DE
:10151E00000000007F09192946000000000046491E
:10152E00494931000000000001017F010100000067
:10153E0000003F4040403F00000000001F204020C0
:10154E001F00000000003F4038403F000000000038
:10155E0063140814630000000000070870080700F9
:10156E000000000061514945430000000000007F6B
:10157E00414100000000000055AA55AA5500000088
:10158E0000000041417F0000000000000402010243
:10159E0004000000000040404040400000000000F9
:1015AE000003050000000000000020545454780091
:1015BE00000000007F48444438000000000038441A
:1015CE004444200000000000384444487F000000DE
:1015DE00000038545454180000000000087E090121
:1015EE0002000000000018A4A4A47C00000000006B
:1015FE007F08040478000000000000447D400000D5
:10160E00000000004080847D0000000000007F107C
:10161E00284400000000000000417F400000000050
:10162E0000007C0418047800000000007C0804040C
:10163E0078000000000038444444380000000000E8
:10164E00FC24242418000000000018242418FC0098
:10165E00000000007C08040408000000000048544C
:10166E005454200000000000043F444020000000BD
:10167E0000003C4040207C00000000001C20402068
:10168E001C00000000003C4030403C000000000008
:10169E00442810284400000000001CA0A0A07C00DC
:1016AE00000000004464544C440000000000001090
:1016BE007C820000000000000000FF00000000001F
:1016CE00000000827C1000000000000000060909E6
:1016DE0006000000000000000000000000000001F5
:1016EE0002020303030304040404040404040505B2
:1016FE00050505050505050505050505050506068A
:10170E00060606060606060606060606060606066B
:10171E000606060606060606060606060606070759
:10172E00070707070707070707070707070707073B
:10173E00070707070707070707070707070707072B
:10174E00070707070707070707070707070707071B
:10175E000707070707070707070707070707080809
:10176E0008080808080808080808080808080808EB
:10177E0008080808080808080808080808080808DB
:10178E0008080808080808080808080808080808CB
:10179E0008080808080808080808080808080808BB
:1017AE0008080808080808080808080808080808AB
:1017BE00080808080808080808080808080808089B
:1017CE00080808080808080808080808080808088B
:0E17DE0008080808080808080808080808088D
:00000001FF
